S01F000044796E616D696344657369676E5F4368616C6C656E67652E7372656304
S11300000C9432000C9444000C9444000C9444006E
S11300100C9444000C9444000C9444000C9444004C
S11300200C9444000C9444000C9444000C949B02E3
S11300300C9444000C9444000C9444000C9444002C
S11300400C9444000C9444000C9444000C9444001C
S11300500C944400340238023D02420247024C022E
S11300605102560211241FBECFE5D8E0DEBFCDBF3A
S113007020E0A0E6B0E001C01D92AC3BB207E1F77E
S11300800E94CB000C9441040C940000009709F4E6
S113009055C0FC012081243008F052C02130C1F049
S11300A028F0223039F12330B9F14CC0FC0122810F
S11300B0211107C02AB38181809582238ABB81E004
S11300C008952AB3FC018181822B8ABB81E00895C3
S11300D0FC012281211107C027B3818180958223ED
S11300E087BB81E0089527B3FC018181822B87BB04
S11300F081E00895FC012281211107C024B381818C
S11301008095822384BB81E0089524B3FC0181811E
S1130110822B84BB81E00895FC012281211107C058
S113012021B381818095822381BB81E0089521B32D
S1130130FC018181822B81BB81E0089580E00895D8
S113014080E0089580E008958430E0F4813059F02F
S113015028F0823069F0833081F016C08BB36827B1
S11301606BBB81E0089588B3682768BB81E008957C
S113017085B3682765BB81E0089582B3682762BBB5
S113018081E0089580E0089580E0089560E281E0D0
S11301900E94A4000895CF93DF9300D01F92CDB79F
S11301A0DEB781E0898380EE8A838FEF8B83CE0173
S11301B001960E9446000E94DA0240E068EE73E075
S11301C086EC90E00E94070380E00E94ED007894A2
S11301D00E94B0030E941301FBCF8230A1F028F4E7
S11301E0882349F0813059F008958430A1F078F0E3
S11301F08530A9F0089585B78F6885BF089585B7C0
S11302008F6985BF089585B78F6A85BF089585B7BF
S11302108F6B85BF089585B78F6E85BF089585B7A9
S11302208FEF85BF089585B7806885BF8895089549
S113023085B78F7785BF0895FC01892B09F48CC09D
S113024080818130A9F120F0823009F45BC086C03E
S11302508181813021F068F0823031F00FC087E075
S11302608093B50081E00BC086E08093B50081E007
S113027006C083818093B50081E001C080E0928153
S1130280992319F0913029F008C099B79E7F99BF3E
S113029005C099B7916099BF01C080E02481358180
S11302A0309361002093600091E09093680008957A
S11302B08181813021F068F0823031F00FC087E015
S11302C08093B50081E00BC086E08093B50081E0A7
S11302D006C083818093B50081E001C080E09281F3
S11302E0992319F0913029F008C099B79B7F99BFE1
S11302F005C099B7946099BF01C080E091E09093E4
S1130300670008958181813021F068F0823031F0F6
S11303100FC087E08093B50081E00BC086E0809336
S1130320B50081E006C083818093B50081E001C0FF
S113033080E09281992319F0913029F008C099B78F
S11303409F7B99BF05C099B7906499BF01C080E0B5
S113035091E090936600089580E0089580E0089508
S11303608130D9F120F0823009F46EC0A7C08091A9
S11303706800882309F4A4C08091B5008230B1F0EC
S113038028F4882351F0813061F024C08630C1F014
S11303908730D9F08430F1F40EC083B783BF81E095
S11303A01AC083B7816083BF81E015C083B78260C0
S11303B083BF81E010C083B7836083BF81E00BC03B
S11303C083B7846083BF81E006C083B7856083BF41
S11303D081E001C080E062BF0895809167008823B6
S11303E009F470C08091B5008230B1F028F48823FC
S11303F051F0813061F024C08630C1F08730D9F0EB
S11304008430F1F40EC08EB58EBD81E01AC08EB575
S113041081608EBD81E015C08EB582608EBD81E0A5
S113042010C08EB583608EBD81E00BC08EB5846034
S11304308EBD81E006C08EB585608EBD81E001C0B1
S113044080E07DBD6CBD0895809166008823E1F154
S1130450E091B5008E2F90E08830910560F5FC01A5
S1130460E65DFF4F0C943B0485B585BD81E024C057
S113047085B5816085BD81E01FC085B5826085BD7D
S113048081E01AC085B5836085BD81E015C085B55E
S1130490846085BD81E010C085B5856085BD81E03F
S11304A00BC085B5866085BD81E006C085B58760D3
S11304B085BD81E001C080E064BD089580E00895B9
S11304C080E0089580E0089580E00895813089F007
S11304D018F08230D9F027C080916800882329F170
S11304E083B713BE88B7816088BF1092680081E02B
S11304F00895809167008823D1F08EB51EBC88B71B
S1130500846088BF1092670081E00895809166003E
S1130510882379F085B515BC88B7806488BF1092AC
S1130520660081E0089580E0089580E0089580E009
S1130530089580E008951F920F920FB60F92112430
S11305402F933F934F935F936F937F938F939F93D7
S1130550AF93BF93EF93FF93E0916000F09161003C
S11305600995FF91EF91BF91AF919F918F917F91E9
S11305706F915F914F913F912F910F900FBE0F900C
S11305801F90189580916C008F5F80936C00809110
S11305906C008A3029F481E080936D0010926C0025
S11305A060916A0070916B0080E00E94B0010E942B
S11305B018010895CF9380916E00813029F1EFE600
S11305C0F0E085EB90E01182108213821282168291
S11305D03796E817F907B9F7E6EBF0E0108284E004
S11305E0838386E090E090936B0080936A0011828D
S11305F0C1E0C28382EC92E095838483CF010E94A0
S11306001C01C0936E0001C08EEFCF9108959C0130
S113061090916E00992319F12115310511F1809102
S113062069008A3001F197E0899FF0011124E159B2
S1130630FF4F318320837383628315821482468340
S1130640811106C060916A0070916B000E94B00134
S1130650809169008F5F8093690080E008958FEF37
S113066008958DEF08958BEF0895EF92FF920F9305
S11306701F93CF93DF9320916E00222309F463C06C
S1130680A0916900AA2309F459C0009709F45DC038
S1130690EFE6F0E045EB50E02081318182179307CB
S11306A009F041C0A13011F0AA3079F427E0A29FEB
S11306B0E0011124C159DF4F198218821B821A826A
S11306C01D821C821E82A1502EC06FEF6A0F77E03C
S11306D0679F9001112421593F4FE9010881198135
S11306E011830083E9010A811B8113830283E901D9
S11306F00C811D8115830483E9012E812683D7E0B3
S1130700AD9FD0011124A159BF4F11961C921E9286
S113071013961C921E92129715961C921E92149771
S113072016961C92A62F3796E417F50709F0B4CF56
S1130730A0936900A1110BC0C0E001C0CCEF80E020
S11307400E94660205C0CFEF03C0CDEF01C0C0E038
S11307508C2FDF91CF911F910F91FF90EF9008950F
S1130760CF92DF92FF920F931F93CF93DF938091E9
S11307706D00813009F073C080916900882309F409
S113078070C0EFE6F0E0815090E001969C01220FEA
S1130790331F220F331F220F331F281B390B2159FC
S11307A03F4FD0E04DEF80819181892B31F08481DE
S11307B0958101969583848301C0D42F37962E1793
S11307C03F0789F7C0E00F2EFDEFFF2EF02D0C2F11
S11307D010E027E0C29FF0011124E159FF4F01907E
S11307E0F081E02D309799F1D801AA0FBB1FAA0F11
S11307F0BB1FAA0FBB1FA01BB10BA159BF4F14965F
S11308002D913C91159712968D919C9113972817D1
S11308103907F0F06801CC0CDD1CCC0CDD1CCC0CD1
S1130820DD1CC601801B910BDC01A159BF4F6D017A
S113083015961C921E9214970995F60186818130B3
S113084039F4F601808191810E94350301C0DF2DC6
S1130850CF5F80916900C81708F4B9CF03C0D0E016
S113086001C0D0E08D2FDF91CF911F910F91FF90A8
S1130870DF90CF900895EE0FFF1F0590F491E02DC7
S10908800994F894FFCF77
S9030000FC
